:100000000EC020C01FC01EC01DC01CC01BC01AC017
:1000100019C018C017C016C015C014C013C01124D1
:100020001FBECFE5D1E0DEBFCDBF10E0A0E6B0E05F
:10003000E8EFF0E002C005900D92A436B107D9F7C1
:1000400057D058C0DDCFB89AB99ABA98C09AC1981B
:100050008FE798E3A1E081509040A040E1F700C015
:100060000000B99ABA9AB898C19AC2988FE798E3F3
:10007000A1E081509040A040E1F700C00000BA9A92
:10008000B89AB998C29AC0988FE798E3A1E08150D6
:100090009040A040E1F700C00000B99AB89ABA9821
:1000A000C19AC0988FE798E3A1E081509040A040AA
:1000B000E1F700C00000BA9AB99AB898C29AC198FC
:1000C0008FE798E3A1E081509040A040E1F700C0A5
:1000D0000000BA9AB89AB998C09AC2988FE798E384
:1000E000A1E081509040A040E1F700C000000895D9
:0800F000AADFFECFF894FFCF58
:00000001FF
