:100000000EC020C01FC01EC01DC01CC01BC01AC017
:1000100019C018C017C016C015C014C013C01124D1
:100020001FBECFE5D1E0DEBFCDBF10E0A0E6B0E05F
:10003000E0E9F0E002C005900D92AC36B107D9F7C7
:1000400010D024C0DDCFE82FFF27E7FDF095E05A60
:10005000FF4F808187BB84E088BB089517BA18BA28
:1000600008958FE798E3A1E081509040A040E1F728
:1000700000C0000082E0E7DF8FE798E3A1E0815055
:100080009040A040E1F700C00000EBCFF894FFCF14
:00000001FF
