:100000000EC020C01FC01EC01DC01CC01BC01AC017
:1000100019C018C017C016C015C014C013C01124D1
:100020001FBECFE5D1E0DEBFCDBF10E0A0E6B0E05F
:10003000E0EDF0E002C005900D92AC36B107D9F7C3
:1000400019D044C0DDCFDF93CF930F92CDB7DEB789
:100050008983E981FF27E7FDF095E05AFF4F808112
:1000600087BB84E088BB0F90CF91DF91089517BACA
:1000700018BA0895DF93CF930F92CDB7DEB703E0A0
:10008000FF24F39412E007BBF8BA8FE798E3A1E0EE
:1000900081509040A040E1F700C0000007BB18BBB2
:1000A0008FE798E3A1E081509040A040E1F700C0C5
:1000B000000019838981C7DF8FE798E3A1E08150B1
:1000C0009040A040E1F700C00000DDCFF894FFCFE2
:00000001FF
