:100000000EC020C01FC01EC01DC01CC01BC01AC017
:1000100019C018C017C016C015C014C013C01124D1
:100020001FBECFE5D1E0DEBFCDBF10E0A0E6B0E05F
:10003000E2E9F0E002C005900D92AC36B107D9F7C5
:1000400024D025C0DDCF992787FD9095FC01E05A8B
:10005000FF4F208127BB8A599F4FFC01808188BBBD
:10006000F5E8FA95F1F70000089517BA18BA08955F
:10007000CF93DF93C0E0D0E08C2FE5DF2196C63030
:10008000D105D1F7DF91CF910895F2DFFECFF8943B
:02009000FFCFA0
:0C00920003030606050502010402010438
:00000001FF
