:100000000EC020C01FC01EC01DC01CC01BC01AC017
:1000100019C018C017C016C015C014C013C01124D1
:100020001FBECFE5D1E0DEBFCDBF10E0A0E6B0E05F
:10003000E4EBF0E002C005900D92A436B107D9F7C9
:1000400033D036C0DDCFB89AB99ABA98C09AC19861
:100050008FEF94E3ACE081509040A040E1F700C006
:100060000000B898B998B99ABA9AB898C19AC29843
:100070008FEF94E3ACE081509040A040E1F700C0E6
:100080000000B998BA98BA9AB89AB998C29AC09822
:100090008FEF94E3ACE081509040A040E1F700C0C6
:1000A0000000BA98B898089581E090E0CCDFFCCFCA
:0400B000F894FFCFF2
:00000001FF
