:100000000EC020C01FC01EC01DC01CC01BC01AC017
:1000100019C018C017C016C015C014C013C01124D1
:100020001FBECFE5D1E0DEBFCDBF10E0A0E6B0E05F
:10003000E6E9F0E002C005900D92AC36B107D9F7C1
:1000400013D027C0DDCF992787FD9095FC01E05A9A
:10005000FF4F208127BB8A599F4FFC01808188BBBD
:10006000089517BA18BA08958FE798E3A1E0815070
:100070009040A040E1F700C0000085E0E4DF8FE79A
:1000800098E3A1E081509040A040E1F700C000005B
:06009000EBCFF894FFCF56
:00000001FF
